{
  "contractName": "SheetLibrary",
  "abi": [
    {
      "constant": true,
      "inputs": [],
      "name": "owner",
      "outputs": [
        {
          "name": "",
          "type": "address"
        }
      ],
      "payable": false,
      "stateMutability": "view",
      "type": "function",
      "signature": "0x8da5cb5b"
    },
    {
      "constant": true,
      "inputs": [],
      "name": "numSheets",
      "outputs": [
        {
          "name": "",
          "type": "uint256"
        }
      ],
      "payable": false,
      "stateMutability": "view",
      "type": "function",
      "signature": "0xe70f4f74"
    },
    {
      "inputs": [],
      "payable": false,
      "stateMutability": "nonpayable",
      "type": "constructor",
      "signature": "constructor"
    },
    {
      "anonymous": false,
      "inputs": [
        {
          "indexed": false,
          "name": "id",
          "type": "uint256"
        }
      ],
      "name": "sheetIdDoesNotExist",
      "type": "event",
      "signature": "0xcc7863342b48fcd13336c0118dce2a2b476279ae09c637bdaf2339754a460136"
    },
    {
      "anonymous": false,
      "inputs": [
        {
          "indexed": false,
          "name": "message",
          "type": "string"
        }
      ],
      "name": "borrowingRequestWasAccepted",
      "type": "event",
      "signature": "0xb1d51eb8c825753efb44e5d7ef8e6c8d14bee2b637aa0ee8e9d5ae0461f165f3"
    },
    {
      "anonymous": false,
      "inputs": [
        {
          "indexed": false,
          "name": "message",
          "type": "string"
        }
      ],
      "name": "error",
      "type": "event",
      "signature": "0x24c93343bea44ff8f0e628ca4e5b87dfe0823d664c887457e166a03798bb191c"
    },
    {
      "constant": false,
      "inputs": [],
      "name": "close",
      "outputs": [],
      "payable": false,
      "stateMutability": "nonpayable",
      "type": "function",
      "signature": "0x43d726d6"
    },
    {
      "constant": false,
      "inputs": [
        {
          "name": "title",
          "type": "string"
        },
        {
          "name": "copies",
          "type": "uint256"
        }
      ],
      "name": "addNewSheets",
      "outputs": [
        {
          "name": "sheetID",
          "type": "uint256"
        }
      ],
      "payable": false,
      "stateMutability": "nonpayable",
      "type": "function",
      "signature": "0x9f83e403"
    },
    {
      "constant": true,
      "inputs": [
        {
          "name": "sheetID",
          "type": "uint256"
        }
      ],
      "name": "getSheet",
      "outputs": [
        {
          "name": "title",
          "type": "string"
        },
        {
          "name": "sheetOwner",
          "type": "address"
        },
        {
          "name": "currentHolder",
          "type": "address"
        },
        {
          "name": "availableCopies",
          "type": "uint256"
        },
        {
          "name": "state",
          "type": "uint8"
        }
      ],
      "payable": false,
      "stateMutability": "view",
      "type": "function",
      "signature": "0xa7fb783e"
    },
    {
      "constant": true,
      "inputs": [
        {
          "name": "sheetID",
          "type": "uint256"
        }
      ],
      "name": "isSheet",
      "outputs": [
        {
          "name": "isIndeedASheet",
          "type": "bool"
        }
      ],
      "payable": false,
      "stateMutability": "view",
      "type": "function",
      "signature": "0x7512414c"
    },
    {
      "constant": false,
      "inputs": [
        {
          "name": "sheetID",
          "type": "uint256"
        }
      ],
      "name": "borrowSheet",
      "outputs": [
        {
          "name": "success",
          "type": "bool"
        }
      ],
      "payable": false,
      "stateMutability": "nonpayable",
      "type": "function",
      "signature": "0xaaecbd71"
    },
    {
      "constant": false,
      "inputs": [
        {
          "name": "sheetID",
          "type": "uint256"
        }
      ],
      "name": "approveBorrowing",
      "outputs": [
        {
          "name": "success",
          "type": "bool"
        }
      ],
      "payable": false,
      "stateMutability": "nonpayable",
      "type": "function",
      "signature": "0x89815e7b"
    },
    {
      "constant": false,
      "inputs": [
        {
          "name": "sheetID",
          "type": "uint256"
        }
      ],
      "name": "returnSheet",
      "outputs": [
        {
          "name": "success",
          "type": "bool"
        }
      ],
      "payable": false,
      "stateMutability": "nonpayable",
      "type": "function",
      "signature": "0x58d8bac6"
    },
    {
      "constant": false,
      "inputs": [
        {
          "name": "sheetID",
          "type": "uint256"
        }
      ],
      "name": "acceptReturnedSheet",
      "outputs": [
        {
          "name": "success",
          "type": "bool"
        }
      ],
      "payable": false,
      "stateMutability": "nonpayable",
      "type": "function",
      "signature": "0xf65a05e6"
    }
  ],
  "bytecode": "0x60806040523480156200001157600080fd5b50336000806101000a81548173ffffffffffffffffffffffffffffffffffffffff021916908373ffffffffffffffffffffffffffffffffffffffff160217905550620000a36040805190810160405280600f81526020017f4578616d706c6520536865657420310000000000000000000000000000000000815250602a620000aa640100000000026401000000009004565b5062000328565b60006001600081548092919060010191905055506001549050600381908060018154018082558091505090600182039060005260206000200160009091929091909150555060c0604051908101604052808481526020013373ffffffffffffffffffffffffffffffffffffffff1681526020013373ffffffffffffffffffffffffffffffffffffffff168152602001838152602001600060048111156200014d57fe5b8152602001600115158152506002600083815260200190815260200160002060008201518160000190805190602001906200018a92919062000279565b5060208201518160010160006101000a81548173ffffffffffffffffffffffffffffffffffffffff021916908373ffffffffffffffffffffffffffffffffffffffff16021790555060408201518160020160006101000a81548173ffffffffffffffffffffffffffffffffffffffff021916908373ffffffffffffffffffffffffffffffffffffffff1602179055506060820151816003015560808201518160040160006101000a81548160ff021916908360048111156200024857fe5b021790555060a08201518160040160016101000a81548160ff02191690831515021790555090505080905092915050565b828054600181600116156101000203166002900490600052602060002090601f016020900481019282601f10620002bc57805160ff1916838001178555620002ed565b82800160010185558215620002ed579182015b82811115620002ec578251825591602001919060010190620002cf565b5b509050620002fc919062000300565b5090565b6200032591905b808211156200032157600081600090555060010162000307565b5090565b90565b61165880620003386000396000f3fe6080604052600436106100a4576000357c0100000000000000000000000000000000000000000000000000000000900463ffffffff16806343d726d6146100a957806358d8bac6146100c05780637512414c1461011357806389815e7b146101665780638da5cb5b146101b95780639f83e40314610210578063a7fb783e146102f6578063aaecbd711461042c578063e70f4f741461047f578063f65a05e6146104aa575b600080fd5b3480156100b557600080fd5b506100be6104fd565b005b3480156100cc57600080fd5b506100f9600480360360208110156100e357600080fd5b810190808035906020019092919050505061056d565b604051808215151515815260200191505060405180910390f35b34801561011f57600080fd5b5061014c6004803603602081101561013657600080fd5b810190808035906020019092919050505061083f565b604051808215151515815260200191505060405180910390f35b34801561017257600080fd5b5061019f6004803603602081101561018957600080fd5b810190808035906020019092919050505061086c565b604051808215151515815260200191505060405180910390f35b3480156101c557600080fd5b506101ce610af3565b604051808273ffffffffffffffffffffffffffffffffffffffff1673ffffffffffffffffffffffffffffffffffffffff16815260200191505060405180910390f35b34801561021c57600080fd5b506102e06004803603604081101561023357600080fd5b810190808035906020019064010000000081111561025057600080fd5b82018360208201111561026257600080fd5b8035906020019184600183028401116401000000008311171561028457600080fd5b91908080601f016020809104026020016040519081016040528093929190818152602001838380828437600081840152601f19601f82011690508083019250505050505050919291929080359060200190929190505050610b18565b6040518082815260200191505060405180910390f35b34801561030257600080fd5b5061032f6004803603602081101561031957600080fd5b8101908080359060200190929190505050610ce3565b60405180806020018673ffffffffffffffffffffffffffffffffffffffff1673ffffffffffffffffffffffffffffffffffffffff1681526020018573ffffffffffffffffffffffffffffffffffffffff1673ffffffffffffffffffffffffffffffffffffffff1681526020018481526020018360048111156103ad57fe5b60ff168152602001828103825287818151815260200191508051906020019080838360005b838110156103ed5780820151818401526020810190506103d2565b50505050905090810190601f16801561041a5780820380516001836020036101000a031916815260200191505b50965050505050505060405180910390f35b34801561043857600080fd5b506104656004803603602081101561044f57600080fd5b8101908080359060200190929190505050610eda565b604051808215151515815260200191505060405180910390f35b34801561048b57600080fd5b5061049461114d565b6040518082815260200191505060405180910390f35b3480156104b657600080fd5b506104e3600480360360208110156104cd57600080fd5b8101908080359060200190929190505050611153565b604051808215151515815260200191505060405180910390f35b6000809054906101000a900473ffffffffffffffffffffffffffffffffffffffff1673ffffffffffffffffffffffffffffffffffffffff163373ffffffffffffffffffffffffffffffffffffffff16141561056b573373ffffffffffffffffffffffffffffffffffffffff16ff5b565b60006105788261083f565b15610795573373ffffffffffffffffffffffffffffffffffffffff166002600084815260200190815260200160002060020160009054906101000a900473ffffffffffffffffffffffffffffffffffffffff1673ffffffffffffffffffffffffffffffffffffffff16141561062757600280600084815260200190815260200160002060040160006101000a81548160ff0219169083600481111561061957fe5b02179055506001905061083a565b7f24c93343bea44ff8f0e628ca4e5b87dfe0823d664c887457e166a03798bb191c6040518080602001828103825260418152602001807f596f7520617265206e6f7420616c6c6f77656420746f2072657475726e20746881526020017f69732073686565742073696e636520796f7520646f6e277420686f6c6420697481526020017f2e0000000000000000000000000000000000000000000000000000000000000081525060600191505060405180910390a16040517f08c379a00000000000000000000000000000000000000000000000000000000081526004018080602001828103825260418152602001807f596f7520617265206e6f7420616c6c6f77656420746f2072657475726e20746881526020017f69732073686565742073696e636520796f7520646f6e277420686f6c6420697481526020017f2e0000000000000000000000000000000000000000000000000000000000000081525060600191505060405180910390fd5b7fcc7863342b48fcd13336c0118dce2a2b476279ae09c637bdaf2339754a460136826040518082815260200191505060405180910390a16040517f08c379a00000000000000000000000000000000000000000000000000000000081526004018080602001828103825260128152602001807f494420646f6573206e6f742065786973742e000000000000000000000000000081525060200191505060405180910390fd5b919050565b60006002600083815260200190815260200160002060040160019054906101000a900460ff169050919050565b60006108778261083f565b15610a49573373ffffffffffffffffffffffffffffffffffffffff166002600084815260200190815260200160002060010160009054906101000a900473ffffffffffffffffffffffffffffffffffffffff1673ffffffffffffffffffffffffffffffffffffffff1614156109275760036002600084815260200190815260200160002060040160006101000a81548160ff0219169083600481111561091957fe5b021790555060019050610aee565b7f24c93343bea44ff8f0e628ca4e5b87dfe0823d664c887457e166a03798bb191c60405180806020018281038252603b8152602001807f596f7520617265206e6f7420616c6c6f77656420746f20617070726f7665207481526020017f686520626f72726f77696e67206f6620746869732053686565742e000000000081525060400191505060405180910390a16040517f08c379a000000000000000000000000000000000000000000000000000000000815260040180806020018281038252603b8152602001807f596f7520617265206e6f7420616c6c6f77656420746f20617070726f7665207481526020017f686520626f72726f77696e67206f6620746869732053686565742e000000000081525060400191505060405180910390fd5b7fcc7863342b48fcd13336c0118dce2a2b476279ae09c637bdaf2339754a460136826040518082815260200191505060405180910390a16040517f08c379a00000000000000000000000000000000000000000000000000000000081526004018080602001828103825260128152602001807f494420646f6573206e6f742065786973742e000000000000000000000000000081525060200191505060405180910390fd5b919050565b6000809054906101000a900473ffffffffffffffffffffffffffffffffffffffff1681565b60006001600081548092919060010191905055506001549050600381908060018154018082558091505090600182039060005260206000200160009091929091909150555060c0604051908101604052808481526020013373ffffffffffffffffffffffffffffffffffffffff1681526020013373ffffffffffffffffffffffffffffffffffffffff16815260200183815260200160006004811115610bba57fe5b815260200160011515815250600260008381526020019081526020016000206000820151816000019080519060200190610bf5929190611587565b5060208201518160010160006101000a81548173ffffffffffffffffffffffffffffffffffffffff021916908373ffffffffffffffffffffffffffffffffffffffff16021790555060408201518160020160006101000a81548173ffffffffffffffffffffffffffffffffffffffff021916908373ffffffffffffffffffffffffffffffffffffffff1602179055506060820151816003015560808201518160040160006101000a81548160ff02191690836004811115610cb257fe5b021790555060a08201518160040160016101000a81548160ff02191690831515021790555090505080905092915050565b6060600080600080610cf48661083f565b15610e6357600260008781526020019081526020016000206000016002600088815260200190815260200160002060010160009054906101000a900473ffffffffffffffffffffffffffffffffffffffff166002600089815260200190815260200160002060020160009054906101000a900473ffffffffffffffffffffffffffffffffffffffff16600260008a815260200190815260200160002060030154600260008b815260200190815260200160002060040160009054906101000a900460ff16848054600181600116156101000203166002900480601f016020809104026020016040519081016040528092919081815260200182805460018160011615610100020316600290048015610e4d5780601f10610e2257610100808354040283529160200191610e4d565b820191906000526020600020905b815481529060010190602001808311610e3057829003601f168201915b5050505050945094509450945094509450610ed1565b6040517f08c379a00000000000000000000000000000000000000000000000000000000081526004018080602001828103825260128152602001807f494420646f6573206e6f742065786973742e000000000000000000000000000081525060200191505060405180910390fd5b91939590929450565b6000610ee58261083f565b156110a35760006002600084815260200190815260200160002090503373ffffffffffffffffffffffffffffffffffffffff168160020160009054906101000a900473ffffffffffffffffffffffffffffffffffffffff1673ffffffffffffffffffffffffffffffffffffffff16141515610fcd57338160020160006101000a81548173ffffffffffffffffffffffffffffffffffffffff021916908373ffffffffffffffffffffffffffffffffffffffff16021790555060018160040160006101000a81548160ff02191690836004811115610fbe57fe5b02179055506001915050611148565b7f24c93343bea44ff8f0e628ca4e5b87dfe0823d664c887457e166a03798bb191c60405180806020018281038252601c8152602001807f596f7520616c726561647920686f6c6420746861742073686565742e0000000081525060200191505060405180910390a16040517f08c379a000000000000000000000000000000000000000000000000000000000815260040180806020018281038252601c8152602001807f596f7520616c726561647920686f6c6420746861742073686565742e0000000081525060200191505060405180910390fd5b7fcc7863342b48fcd13336c0118dce2a2b476279ae09c637bdaf2339754a460136826040518082815260200191505060405180910390a16040517f08c379a00000000000000000000000000000000000000000000000000000000081526004018080602001828103825260128152602001807f494420646f6573206e6f742065786973742e000000000000000000000000000081525060200191505060405180910390fd5b919050565b60015481565b600061115e8261083f565b156114dd573373ffffffffffffffffffffffffffffffffffffffff166002600084815260200190815260200160002060010160009054906101000a900473ffffffffffffffffffffffffffffffffffffffff1673ffffffffffffffffffffffffffffffffffffffff1614156113bb57600260048111156111da57fe5b6002600084815260200190815260200160002060040160009054906101000a900460ff16600481111561120957fe5b141561129957600060026000848152602001908152602001600020905060008160040160006101000a81548160ff0219169083600481111561124757fe5b0217905550338160020160006101000a81548173ffffffffffffffffffffffffffffffffffffffff021916908373ffffffffffffffffffffffffffffffffffffffff1602179055506001915050611582565b7f24c93343bea44ff8f0e628ca4e5b87dfe0823d664c887457e166a03798bb191c6040518080602001828103825260288152602001807f536865657473206172652063757272656e746c79206e6f74206265696e67207281526020017f657475726e65642e00000000000000000000000000000000000000000000000081525060400191505060405180910390a16040517f08c379a00000000000000000000000000000000000000000000000000000000081526004018080602001828103825260288152602001807f536865657473206172652063757272656e746c79206e6f74206265696e67207281526020017f657475726e65642e00000000000000000000000000000000000000000000000081525060400191505060405180910390fd5b7f24c93343bea44ff8f0e628ca4e5b87dfe0823d664c887457e166a03798bb191c6040518080602001828103825260398152602001807f596f7520617265206e6f7420616c6c6f77656420746f20706572666f726d207481526020017f68697320616374696f6e206f6e20746869732073686565742e0000000000000081525060400191505060405180910390a16040517f08c379a00000000000000000000000000000000000000000000000000000000081526004018080602001828103825260398152602001807f596f7520617265206e6f7420616c6c6f77656420746f20706572666f726d207481526020017f68697320616374696f6e206f6e20746869732073686565742e0000000000000081525060400191505060405180910390fd5b7fcc7863342b48fcd13336c0118dce2a2b476279ae09c637bdaf2339754a460136826040518082815260200191505060405180910390a16040517f08c379a00000000000000000000000000000000000000000000000000000000081526004018080602001828103825260128152602001807f494420646f6573206e6f742065786973742e000000000000000000000000000081525060200191505060405180910390fd5b919050565b828054600181600116156101000203166002900490600052602060002090601f016020900481019282601f106115c857805160ff19168380011785556115f6565b828001600101855582156115f6579182015b828111156115f55782518255916020019190600101906115da565b5b5090506116039190611607565b5090565b61162991905b8082111561162557600081600090555060010161160d565b5090565b9056fea165627a7a72305820542cb49ee04d0cba578d0e2eb7aca5205892ebd39c6a7ad0e2d01e4b05db5f9f0029",
  "source": "pragma solidity ^0.5.0;\n\ncontract SheetLibrary {\n\n    address public owner;\n\n    enum State {atOwner, borrowing, returning, atBorrower, nonexistent}\n\n    struct Sheet {\n        string title;\n        address owner;\n        address currentHolder;\n        uint availableCopies;\n        State state;\n        bool isSheet;\n    }\n\n    // Store number of available Sheets\n    uint public numSheets;\n    mapping (uint => Sheet) private sheetLibrary;\n\n    uint[] private sheetIndex;\n    uint[] borrowings;\n\n    event sheetIdDoesNotExist(uint id);\n    event borrowingRequestWasAccepted(string message);\n    event error(string message);\n\n    constructor () public {\n        owner = msg.sender;\n        addNewSheets(\"Example Sheet 1\", 42);\n    }\n\n    function close() public {\n        if(msg.sender == owner){\n            selfdestruct(msg.sender);\n        }\n    }\n\n    function addNewSheets(string memory title, uint copies) public returns (uint sheetID) {\n        numSheets++;\n        sheetID = numSheets;\n        sheetIndex.push(sheetID);\n        sheetLibrary[sheetID] = Sheet(title, msg.sender, msg.sender, copies, State.atOwner, true);\n        return sheetID;\n    }\n\n    function getSheet(uint sheetID) public view returns (\n        string memory title, \n        address sheetOwner, \n        address currentHolder,\n        uint availableCopies,\n        State state){\n        if(isSheet(sheetID)){\n            return (\n                sheetLibrary[sheetID].title,\n                sheetLibrary[sheetID].owner,\n                sheetLibrary[sheetID].currentHolder,\n                sheetLibrary[sheetID].availableCopies,\n                sheetLibrary[sheetID].state\n                );\n        } else {\n            revert(\"ID does not exist.\");\n            return(\"\", address(0), address(0), 0, State.nonexistent);\n        }\n    }\n\n    function isSheet(uint sheetID) public view returns (bool isIndeedASheet) {\n        return sheetLibrary[sheetID].isSheet;\n    }\n\n    function borrowSheet(uint sheetID) public returns (bool success) {\n        if (isSheet(sheetID)){\n            Sheet storage s = sheetLibrary[sheetID];\n            if(s.currentHolder != msg.sender){\n                s.currentHolder = msg.sender;\n                s.state = State.borrowing;\n                return true;\n            } else {\n                emit error(\"You already hold that sheet.\");\n                revert(\"You already hold that sheet.\");\n                return false;\n            }\n        } else {\n            emit sheetIdDoesNotExist(sheetID);\n            revert(\"ID does not exist.\");\n            return false;\n        }        \n    }\n\n    function approveBorrowing(uint sheetID) public returns (bool success) {\n        if(isSheet(sheetID)){\n            if(sheetLibrary[sheetID].owner == msg.sender){\n                sheetLibrary[sheetID].state = State.atBorrower;\n                return true;\n            } else {\n                emit error(\"You are not allowed to approve the borrowing of this Sheet.\");\n                revert(\"You are not allowed to approve the borrowing of this Sheet.\");\n                return false;\n            }\n        } else {\n            emit sheetIdDoesNotExist(sheetID);\n            revert(\"ID does not exist.\");\n            return false;\n        }\n    }\n\n    function returnSheet(uint sheetID) public returns (bool success) {\n        if(isSheet(sheetID)){\n            if(sheetLibrary[sheetID].currentHolder == msg.sender){\n                sheetLibrary[sheetID].state = State.returning;\n                return true;\n            } else {\n                emit error(\"You are not allowed to return this sheet since you don't hold it.\");\n                revert(\"You are not allowed to return this sheet since you don't hold it.\");\n                return false;\n            }\n        } else {\n            emit sheetIdDoesNotExist(sheetID);\n            revert(\"ID does not exist.\");\n            return false;\n        }\n    }\n\n    function acceptReturnedSheet(uint sheetID) public returns (bool success){\n        if(isSheet(sheetID)){\n            if(sheetLibrary[sheetID].owner == msg.sender){\n                if(sheetLibrary[sheetID].state == State.returning){\n                    Sheet storage s = sheetLibrary[sheetID];\n                    s.state = State.atOwner;\n                    s.currentHolder = msg.sender;\n                    return true;\n                } else {\n                    emit error(\"Sheets are currently not being returned.\");\n                    revert(\"Sheets are currently not being returned.\");\n                    return false;\n                }\n            } else {\n                emit error(\"You are not allowed to perform this action on this sheet.\");\n                revert(\"You are not allowed to perform this action on this sheet.\");\n                return false;\n            }\n        } else {\n            emit sheetIdDoesNotExist(sheetID);\n            revert(\"ID does not exist.\");\n            return false;\n        }\n    }\n}",
  "sourcePath": "/home/cwernet/SheetLibraryFrontend/contracts/SheetLibrary.sol",
  "compiler": {
    "name": "solc",
    "version": "0.5.0+commit.1d4f565a.Emscripten.clang"
  },
  "schemaVersion": "3.0.1",
  "updatedAt": "2019-01-08T07:50:53.668Z",
  "devdoc": {
    "methods": {}
  },
  "userdoc": {
    "methods": {}
  }
}